:020000040000FA
:060000008A110A124F28CC
:08000800F400030EF5000A08E4
:10001000F6008B1E12280B1D12280B118B128B154C
:10002000721446280B1C33288B1D332883120313AC
:1000300006080B107306013903192E288B11721054
:10004000B2308A110A12A720731C2E2801308A119F
:100050000A12AD208312031301309006831203139A
:100060000608F3004628831603130C1C4628831247
:1000700003130C1C46288A110A12B12002308A117F
:100080000A12AD208A110A12BE20462876088A007C
:0A009000750E8300F40E740E0900D3
:04009A0000340034FA
:02009E008A11C5
:1000A0000A1278207214F210F001F1018312031386
:1000B00006080B108B150130F30083120313053073
:1000C00088008A110A12B1208312031310148316B8
:1000D00003130C140B178B17721C6B288B138312D2
:1000E0000313081163008312031308158B176B2881
:1000F0007130831603138F008B01FF3083160313B7
:100100008600FF3085008700890083160317890168
:100110000130831603139600F03083160313880012
:1001200047308316031381000E30831203139000AF
:100130002430831603139800803083120313980031
:10014000831603178701193083160313990083124E
:10015000031381000B118B1608008312031388060A
:1001600008008312031300308E0080308F0083124A
:1001700003130C108312031310140800F00A3C3010
:10018000700283120313031DD228F0018A110A1290
:100190000830AD20710A3C30710283120313031D35
:0601A000D228F101080065
:02400E00F42C90
:02401000FF3E71
:00000001FF
