:020000040000FA
:060000008A110A128E288D
:08000800F300030EF4000A08E6
:10001000F5008B1E12280B1D12280B118B128B154D
:1000200072143F280B1C2F288B1D2F2883120313BB
:1000300006080B107606013903192A288B11721055
:10004000B2308A110A124620761C2A2801308A1101
:100050000A124C20831203130608F6003F28831669
:1000600003130C1C3F28831203130C1C3F288A1116
:100070000A12502002308A110A124C203F287508BB
:100080008A00740E8300F30E730E090083120313AB
:1000900081000B118B1608008312031388060800D9
:1000A0008312031300308E0080308F0083120313FD
:1000B0000C108312031310140800713083160313FD
:1000C0008F008B01FF30831603138600FF308500FD
:1000D00087008900831603178901013083160313F3
:1000E0009600F030831603138800473083160313FD
:1000F00081000E3083120313900024308316031303
:100100009800803083120313980083160317870129
:08011000193083160313990056
:04011800003400347B
:04011C008A110A1228
:100120005D207214F2108312031306080B108B1556
:10013000831603130C140130F600831203130530E9
:1001400088008A110A125020831203131014831698
:1001500003130C148B170B178B137218B1288B1702
:10016000AC288312031308116300831203130815CC
:040170008B17AC2815
:02400E00F42C90
:02401000FF3E71
:00000001FF
