:020000040000FA
:060000008A110A127028AB
:08000800F200030EF3000A08E8
:10001000F4008B1E12280B1D12280B118B128B154E
:10002000701467280B1C33288B1D3328831203138D
:1000300006080B107106013903192E288B11701058
:10004000B2308A110A12E820711C2E2801308A1160
:100050000A12EE2083120313013090068312031359
:100060000608F1006728831603130C1C4D28831221
:1000700003130C1C4D288A110A12F22002308A1137
:100080000A12EE208A110A12FF208A110A12102188
:1000900006308A110A122B216728831603130C1EBF
:1000A0006728831203130C1E672883120313260884
:1000B000031963280008831203139900840A83122A
:1000C0000313A6036728F010831603130C12740899
:0C00D0008A00730E8300F20E720E09000D
:0400DC0000340034B8
:1000E0008A110A12AE207014F01083120313A701B4
:1000F00083120313A8018312031306080B108B1538
:100100000130F10083120313053088008A110A12AE
:10011000F220831203131014831603130C140B170D
:100120008B178A110A12102106308A110A122B210C
:100130008B1370189C28A328F01C9F28A3288316D3
:1001400003139818A5288B179828831203130811F6
:1001500063008312031308158B17982871308316D8
:1001600003138F008B01FF308316031386000F30BB
:10017000831603139500FF30850089008312031353
:100180008701BF3083160313870083160317890185
:100190000130831603139600F03083160313880092
:1001A00047308316031381000E308312031390002F
:1001B00024308316031398008030831203139800B1
:1001C000831603178701193083160313990008005B
:1001D0008312031381000B118B1608008312031383
:1001E000880608008312031300308E0080308F00D1
:1001F000831203130C1083120313101408008312CC
:100200000313A70A3C302702031D0F29A7018312FD
:100210000313A80A3C302802031D0F29A801080077
:100220008312031328088A110A1237218312031339
:10023000A0007508A1003A30A2008312031327081A
:100240008A110A12372183120313A3007508A40030
:100250000A30A500080083120313A60083120313BB
:1002600020308400F014831603130C160800F601E6
:10027000F5000A307502031C3F29F60A3829303090
:06028000F50776070800F7
:02400E00F42C90
:02401000FF3E71
:00000001FF
