:020000040000FA
:060000008A110A126C28AF
:08000800F200030EF3000A08E8
:10001000F4008B1E12280B1D12280B118B128B154E
:10002000701463280B1C33288B1D33288312031391
:1000300006080B107106013903192E288B11701058
:10004000B2308A110A12DE20711C2E2801308A116A
:100050000A12E42083120313013090068312031363
:100060000608F1006328831603130C1C4928831229
:1000700003130C1C49288A110A12E8208A110A125B
:10008000F5208A110A12062106308A110A1221214E
:100090006328831603130C1E6328831203130C1E9C
:1000A000632883120313260803195F2800088312AC
:1000B00003139900840A83120313A6036328F01024
:1000C000831603130C1274088A00730E8300F20E59
:0400D000720E0900A3
:0400D40000340034C0
:0800D8008A110A12A420701421
:1000E000F01083120313A70183120313A8018312D4
:1000F000031306080B108B150130F1008312031354
:10010000013088008A110A12E820831203131014A8
:10011000831603130C140B178B178A110A1206216E
:1001200006308A110A1221218B13701898289F28F3
:10013000F01C9B289F28831603139818A1288B175F
:10014000942863008B1794287130831603138F0053
:100150008B01FF308316031386000F3083160313C1
:100160009500FF3085008900831203138701BF309B
:100170008316031387008316031789010130831642
:1001800003139600F030831603138800473083165C
:10019000031381000E308312031390002430831662
:1001A00003139800803083120313980083160317FB
:1001B0008701193083160313990008008312031373
:1001C00081000B118B1608008312031388060800A8
:1001D0008312031300308E0080308F0083120313CC
:1001E0000C10831203131014080083120313A70AC0
:1001F0003C302702031D0529A70183120313A80A17
:100200003C302802031D0529A801080083120313AE
:1002100028088A110A122C2183120313A0007508E2
:10022000A1003A30A2008312031327088A110A1290
:100230002C2183120313A3007508A4000A30A50023
:10024000080083120313A600831320308400F014E7
:10025000831603130C160800F601F5000A30750228
:10026000031C3429F60A2D293030F50776070800DB
:02400E00F42C90
:02401000FF3E71
:00000001FF
