:020000040000FA
:060000008A110A127428A7
:08000800F400030EF5000A08E4
:10001000F6008B1E12280B1D12280B118B128B154C
:1000200072146B280B1C33288B1D33288312031387
:1000300006080B107306013903192E288B11721054
:10004000B2308A110A12D920731C2E2801308A116D
:100050000A12DF2083120313013090068312031368
:100060000608F3006B28831603130C1C4D2883121B
:1000700003130C1C4D288A110A12E32002308A1146
:100080000A12DF208A110A12F0208A110A120121B5
:1000900005308A110A120C216B28831603130C1EDB
:1000A0006B28831203130C1E6B288A110A12083066
:1000B000DF20831203132608031967280008831220
:1000C00003139900840A83120313A6036B28F2100A
:1000D000831603130C1276088A00750E8300F40E43
:0400E000740E090091
:0400E40000340034B0
:0800E8008A110A129F20721414
:1000F000F210F001F1018312031306080B108B15A7
:100100000130F30083120313053088008A110A12AC
:10011000E320831203131014831603130C140B171C
:100120008B17721C9028F21890288B1383120313DC
:10013000081163008312031308158B179028713080
:10014000831603138F008B01FF3083160313860081
:100150000F30831603139500FF308500890083124A
:1001600003138701BF308316031387008316031719
:1001700089010130831603139600F03083160313B0
:10018000880047308316031381000E308312031357
:1001900090002430831603139800803083120313D9
:1001A00098008316031787011930831603139900EB
:1001B00008008312031381000B118B1608008312B1
:1001C0000313880608008312031300308E0080306A
:1001D0008F00831203130C108312031310140800F2
:1001E000F00A3C30700283120313031D0029F00152
:1001F000710A3C30710283120313031D0029F101BF
:100200000800831203137430A0006530A10073301E
:10021000A2007430A300080083120313A600831207
:10022000031320308400F214831603130C16080005
:02400E00F42C90
:02401000FF3E71
:00000001FF
