:020000040000FA
:060000008A110A12AA2871
:08000800F300030EF4000A08E6
:10001000F5008B1E12280B1D12280B118B128B154D
:10002000721446280B1C33288B1D332883120313AC
:1000300006080B107606013903192E288B11721051
:10004000B2308A110A124D20761C2E2801308A11F6
:100050000A125320831203130130900683120313F4
:100060000608F6004628831603130C1C4628831244
:1000700003130C1C46288A110A12572002308A11D9
:100080000A1253208A110A126420462875088A0031
:10009000740E8300F30E730E0900831203138100A4
:1000A0000B118B16080083120313880608008312B5
:1000B000031300308E0080308F00831203130C1066
:1000C0008312031310140800F00A3C3070028312EC
:1000D0000313031D7828F0018A110A1208305320F7
:1000E000710A3C30710283120313031D7828F10159
:1000F00008007130831603138F008B01FF308316C5
:1001000003138600FF3085008700890083160317DC
:1001100089010130831603139600F0308316031310
:10012000880047308316031381000E3083120313B7
:100130009000243083160313980080308312031339
:10014000980083160317870119308316031399004B
:040150000034003443
:0C0154008A110A1279207214F210F001D6
:10016000F1018312031306080B108B15831603137A
:100170000C140130F60083120313053088008A1135
:100180000A125720831203131014831603130C143E
:100190008B170B178B137218CF288B17CA28831253
:1001A0000313081163008312031308158B17CA2861
:02400E00F42C90
:02401000FF3E71
:00000001FF
