:020000040000FA
:060000008A110A127328A8
:08000800F300030EF4000A08E6
:10001000F5008B1E16280B1D16280B118B128B1545
:10002000721408308A110A12402033280B1C33281E
:100030008B1D33288312031306080B107606013933
:1000400003192E288B117210B2308A110A123A202D
:10005000761C2E2801308A110A12402083120313C5
:100060000608F600332875088A00740E8300F30E24
:10007000730E09008312031381000B118B16080005
:1000800083120313880608007130831603138F0050
:100090008B01FF30831603138600850089008316C9
:1000A000031789010130831603139600F03083167D
:1000B0000313880047308316031381000A3083122C
:1000C00003139000243083160313980080308312AA
:1000D000031398008316031787011930831603133F
:0200E000990085
:0400E20000340034B2
:0A00E6008A110A1244207214F2106D
:1000F0008312031306080B108B150130F6008312D0
:100100000313053088008B178B13721889288B17FF
:100110008428831203130811630083120313081544
:040120008B1784288D
:02400E00F42C90
:02401000FF3E71
:00000001FF
